{
  "contractName": "Chitthi",
  "abi": [
    {
      "anonymous": false,
      "inputs": [
        {
          "indexed": false,
          "internalType": "address",
          "name": "friendAddress",
          "type": "address"
        },
        {
          "indexed": false,
          "internalType": "bool",
          "name": "isBlocked",
          "type": "bool"
        }
      ],
      "name": "friendAdded",
      "type": "event"
    },
    {
      "anonymous": false,
      "inputs": [
        {
          "indexed": false,
          "internalType": "address",
          "name": "requestFrom",
          "type": "address"
        },
        {
          "indexed": false,
          "internalType": "bytes",
          "name": "status",
          "type": "bytes"
        }
      ],
      "name": "friendRequestSent",
      "type": "event"
    },
    {
      "anonymous": false,
      "inputs": [
        {
          "indexed": false,
          "internalType": "address",
          "name": "requestFrom",
          "type": "address"
        },
        {
          "indexed": false,
          "internalType": "bytes",
          "name": "status",
          "type": "bytes"
        }
      ],
      "name": "friendRequestUpdated",
      "type": "event"
    },
    {
      "anonymous": false,
      "inputs": [
        {
          "indexed": false,
          "internalType": "address",
          "name": "messageFrom",
          "type": "address"
        },
        {
          "indexed": false,
          "internalType": "string",
          "name": "message",
          "type": "string"
        }
      ],
      "name": "messageTransfered",
      "type": "event"
    },
    {
      "anonymous": false,
      "inputs": [
        {
          "indexed": false,
          "internalType": "string",
          "name": "userName",
          "type": "string"
        },
        {
          "indexed": false,
          "internalType": "address",
          "name": "userAddress",
          "type": "address"
        }
      ],
      "name": "userAdded",
      "type": "event"
    },
    {
      "constant": true,
      "inputs": [
        {
          "internalType": "address",
          "name": "",
          "type": "address"
        },
        {
          "internalType": "uint256",
          "name": "",
          "type": "uint256"
        }
      ],
      "name": "friendRequests",
      "outputs": [
        {
          "internalType": "address",
          "name": "requestFrom",
          "type": "address"
        },
        {
          "internalType": "bytes",
          "name": "status",
          "type": "bytes"
        }
      ],
      "payable": false,
      "stateMutability": "view",
      "type": "function"
    },
    {
      "constant": true,
      "inputs": [
        {
          "internalType": "address",
          "name": "",
          "type": "address"
        },
        {
          "internalType": "uint256",
          "name": "",
          "type": "uint256"
        }
      ],
      "name": "friends",
      "outputs": [
        {
          "internalType": "address",
          "name": "friendAddress",
          "type": "address"
        },
        {
          "internalType": "bool",
          "name": "isBlocked",
          "type": "bool"
        }
      ],
      "payable": false,
      "stateMutability": "view",
      "type": "function"
    },
    {
      "constant": true,
      "inputs": [
        {
          "internalType": "address",
          "name": "",
          "type": "address"
        },
        {
          "internalType": "uint256",
          "name": "",
          "type": "uint256"
        }
      ],
      "name": "messages",
      "outputs": [
        {
          "internalType": "address",
          "name": "messageFrom",
          "type": "address"
        },
        {
          "internalType": "string",
          "name": "message",
          "type": "string"
        }
      ],
      "payable": false,
      "stateMutability": "view",
      "type": "function"
    },
    {
      "constant": true,
      "inputs": [
        {
          "internalType": "address",
          "name": "",
          "type": "address"
        }
      ],
      "name": "users",
      "outputs": [
        {
          "internalType": "string",
          "name": "userName",
          "type": "string"
        },
        {
          "internalType": "address",
          "name": "userAddress",
          "type": "address"
        }
      ],
      "payable": false,
      "stateMutability": "view",
      "type": "function"
    },
    {
      "constant": true,
      "inputs": [],
      "name": "getTrueByte",
      "outputs": [
        {
          "internalType": "bytes",
          "name": "",
          "type": "bytes"
        }
      ],
      "payable": false,
      "stateMutability": "view",
      "type": "function"
    },
    {
      "constant": true,
      "inputs": [],
      "name": "getFalseByte",
      "outputs": [
        {
          "internalType": "bytes",
          "name": "",
          "type": "bytes"
        }
      ],
      "payable": false,
      "stateMutability": "view",
      "type": "function"
    },
    {
      "constant": false,
      "inputs": [
        {
          "internalType": "string",
          "name": "_userName",
          "type": "string"
        }
      ],
      "name": "addUser",
      "outputs": [],
      "payable": false,
      "stateMutability": "nonpayable",
      "type": "function"
    },
    {
      "constant": false,
      "inputs": [
        {
          "internalType": "address",
          "name": "_toAddress",
          "type": "address"
        },
        {
          "internalType": "string",
          "name": "_message",
          "type": "string"
        }
      ],
      "name": "sendMessage",
      "outputs": [],
      "payable": false,
      "stateMutability": "nonpayable",
      "type": "function"
    },
    {
      "constant": false,
      "inputs": [
        {
          "internalType": "address",
          "name": "_requestReceiver",
          "type": "address"
        }
      ],
      "name": "sendFriendRequest",
      "outputs": [],
      "payable": false,
      "stateMutability": "nonpayable",
      "type": "function"
    },
    {
      "constant": false,
      "inputs": [
        {
          "internalType": "uint256",
          "name": "_requestCount",
          "type": "uint256"
        },
        {
          "internalType": "bytes",
          "name": "_status",
          "type": "bytes"
        }
      ],
      "name": "updateFriendRequestStatus",
      "outputs": [],
      "payable": false,
      "stateMutability": "nonpayable",
      "type": "function"
    }
  ],
  "bytecode": "0x60c060405260046080819052637472756560e01b60a09081526200002791600091906200007a565b506040805180820190915260058082526466616c736560d81b602090920191825262000056916001916200007a565b506000600355600060055560006007553480156200007357600080fd5b506200011f565b828054600181600116156101000203166002900490600052602060002090601f016020900481019282601f10620000bd57805160ff1916838001178555620000ed565b82800160010185558215620000ed579182015b82811115620000ed578251825591602001919060010190620000d0565b50620000fb929150620000ff565b5090565b6200011c91905b80821115620000fb576000815560010162000106565b90565b611469806200012f6000396000f3fe608060405234801561001057600080fd5b506004361061009e5760003560e01c8063afeb656c11610066578063afeb656c14610355578063c45d9bea146103d2578063d2260641146103fe578063de6f24bb1461044d578063ea586ef7146105035761009e565b806318b8275a146100a357806340ad134b1461014b57806354c14c39146101f8578063837b770a146102b5578063a87430ba146102db575b600080fd5b610149600480360360208110156100b957600080fd5b8101906020810181356401000000008111156100d457600080fd5b8201836020820111156100e657600080fd5b8035906020019184600183028401116401000000008311171561010857600080fd5b91908080601f01602080910402602001604051908101604052809392919081815260200183838082843760009201919091525092955061050b945050505050565b005b6101496004803603604081101561016157600080fd5b8135919081019060408101602082013564010000000081111561018357600080fd5b82018360208201111561019557600080fd5b803590602001918460018302840111640100000000831117156101b757600080fd5b91908080601f0160208091040260200160405190810160405280939291908181526020018383808284376000920191909152509295506106b2945050505050565b6102246004803603604081101561020e57600080fd5b506001600160a01b038135169060200135610969565b60405180836001600160a01b03166001600160a01b0316815260200180602001828103825283818151815260200191508051906020019080838360005b83811015610279578181015183820152602001610261565b50505050905090810190601f1680156102a65780820380516001836020036101000a031916815260200191505b50935050505060405180910390f35b610149600480360360208110156102cb57600080fd5b50356001600160a01b0316610a24565b610301600480360360208110156102f157600080fd5b50356001600160a01b0316610bca565b6040518080602001836001600160a01b03166001600160a01b031681526020018281038252848181518152602001915080519060200190808383600083811015610279578181015183820152602001610261565b61035d610c74565b6040805160208082528351818301528351919283929083019185019080838360005b8381101561039757818101518382015260200161037f565b50505050905090810190601f1680156103c45780820380516001836020036101000a031916815260200191505b509250505060405180910390f35b610224600480360360408110156103e857600080fd5b506001600160a01b038135169060200135610d0a565b61042a6004803603604081101561041457600080fd5b506001600160a01b038135169060200135610d90565b604080516001600160a01b03909316835290151560208301528051918290030190f35b6101496004803603604081101561046357600080fd5b6001600160a01b03823516919081019060408101602082013564010000000081111561048e57600080fd5b8201836020820111156104a057600080fd5b803590602001918460018302840111640100000000831117156104c257600080fd5b91908080601f016020809104026020016040519081016040528093929190818152602001838380828437600092019190915250929550610dc2945050505050565b61035d61112b565b806000815111610562576040805162461bcd60e51b815260206004820152601760248201527f557365726e616d652063616e2774206265206e756c6c21000000000000000000604482015290519081900360640190fd5b336105ab576040805162461bcd60e51b815260206004820152601460248201527357616c6c6574206e6f742064657465637465642160601b604482015290519081900360640190fd5b60408051808201825283815233602080830182905260009182526002815292902081518051929391926105e19284920190611333565b5060209182015160019190910180546001600160a01b0319166001600160a01b03909216919091179055604080513381840181905282825285519282019290925284517fa7fb616254186c6b927f3a89355a165114b4445b7d4d8c0fd969f388f4f2811f9386939291829160608301919086019080838360005b8381101561067357818101518382015260200161065b565b50505050905090810190601f1680156106a05780820380516001836020036101000a031916815260200191505b50935050505060405180910390a15050565b336000908152600260205260409020600101546001600160a01b03166107095760405162461bcd60e51b81526004018080602001828103825260248152602001806113cc6024913960400191505060405180910390fd5b60408051637472756560e01b81529051908190036004019020815160208301208391839114806107575750604080516466616c736560d81b8152905190819003600501902081516020830120145b6107925760405162461bcd60e51b81526004018080602001828103825260248152602001806113f06024913960400191505060405180910390fd5b60408051637472756560e01b815290519081900360040190208351602085012014156108f35760408051808201825260048152637472756560e01b6020808301918252336000908152600882528481208982529091529290922090516107fe9260019092019190611333565b5033600090815260086020908152604080832087845282528083205481516001600160a01b0390911680825281840183815288519383019390935287517fd0f36b27c94dd1df76de2b0a40df3591c1781ebb340c9a2ca2e84eeffb4901c6959194899492606085019291860191908190849084905b8381101561088b578181015183820152602001610873565b50505050905090810190601f1680156108b85780820380516001836020036101000a031916815260200191505b50935050505060405180910390a13360009081526008602090815260408083208784529091529020546108f3906001600160a01b031661118c565b604080516466616c736560d81b8152905190819003600501902083516020850120141561096357604080518082018252600581526466616c736560d81b6020808301918252336000908152600882528481208982529091529290922090516109619260019092019190611333565b505b50505050565b60086020908152600092835260408084208252918352918190208054600180830180548551600261010094831615949094026000190190911692909204601f81018790048702830187019095528482526001600160a01b039092169492939092830182828015610a1a5780601f106109ef57610100808354040283529160200191610a1a565b820191906000526020600020905b8154815290600101906020018083116109fd57829003601f168201915b5050505050905082565b336000908152600260205260409020600101546001600160a01b0316610a7b5760405162461bcd60e51b81526004018080602001828103825260248152602001806113cc6024913960400191505060405180910390fd5b6001600160a01b03808216600090815260026020526040902060010154829116610aec576040805162461bcd60e51b815260206004820181905260248201527f52657175657374207265636569766572206973206e6f7420616e207573657221604482015290519081900360640190fd5b600780546001908101918290556040805180820182523381528151808301835260048152631b9d5b1b60e21b6020808301919091528083019182526001600160a01b0388811660009081526008835285812097815296825293909520825181546001600160a01b031916941693909317835551805191949293610b759390850192910190611333565b50506040805133815260208101829052600481830152631b9d5b1b60e21b606082015290517f97049dffe35674214a9c47532f3d9c18b1cb9e298817e8ecbb1e0520fa669f5092509081900360800190a15050565b600260208181526000928352604092839020805484516001821615610100026000190190911693909304601f8101839004830284018301909452838352928391830182828015610c5b5780601f10610c3057610100808354040283529160200191610c5b565b820191906000526020600020905b815481529060010190602001808311610c3e57829003601f168201915b505050600190930154919250506001600160a01b031682565b60018054604080516020601f60026000196101008789161502019095169490940493840181900481028201810190925282815260609390929091830182828015610cff5780601f10610cd457610100808354040283529160200191610cff565b820191906000526020600020905b815481529060010190602001808311610ce257829003601f168201915b505050505090505b90565b60046020908152600092835260408084208252918352918190208054600180830180548551600261010094831615949094026000190190911692909204601f81018790048702830187019095528482526001600160a01b039092169492939092830182828015610a1a5780601f106109ef57610100808354040283529160200191610a1a565b60066020908152600092835260408084209091529082529020546001600160a01b03811690600160a01b900460ff1682565b336000908152600260205260409020600101546001600160a01b0316610e195760405162461bcd60e51b81526004018080602001828103825260248152602001806113cc6024913960400191505060405180910390fd5b6001600160a01b038083166000908152600260205260409020600101548391839116610e8c576040805162461bcd60e51b815260206004820152601860248201527f5265636569766572206973206e6f7420616e2075736572210000000000000000604482015290519081900360640190fd5b6001600160a01b038216610ed15760405162461bcd60e51b81526004018080602001828103825260218152602001806114146021913960400191505060405180910390fd5b6000815111610f20576040805162461bcd60e51b81526020600482015260166024820152754d6573736167652063616e2774206265206e756c6c2160501b604482015290519081900360640190fd5b33610f69576040805162461bcd60e51b815260206004820152601460248201527357616c6c6574206e6f742064657465637465642160601b604482015290519081900360640190fd5b600060015b6005548111610fb2573360009081526006602090815260408083208484529091529020546001600160a01b0385811691161415610faa57600191505b600101610f6e565b5080610ffd576040805162461bcd60e51b815260206004820152601560248201527455736572206973206e6f74206120667269656e642160581b604482015290519081900360640190fd5b6003805460019081019182905560408051808201825233815260208082018981526001600160a01b038b811660009081526004845285812097815296835293909520825181546001600160a01b0319169416939093178355935180519194929361106d9390850192910190611333565b509050507f223ea76dd4afb9708b370864827890f2985c5d619a646574c6efcea6b56d2544858560405180836001600160a01b03166001600160a01b0316815260200180602001828103825283818151815260200191508051906020019080838360005b838110156110e95781810151838201526020016110d1565b50505050905090810190601f1680156111165780820380516001836020036101000a031916815260200191505b50935050505060405180910390a15050505050565b60008054604080516020601f6002600019610100600188161502019095169490940493840181900481028201810190925282815260609390929091830182828015610cff5780601f10610cd457610100808354040283529160200191610cff565b336000908152600260205260409020600101546001600160a01b03166111e35760405162461bcd60e51b81526004018080602001828103825260248152602001806113cc6024913960400191505060405180910390fd5b806001600160a01b03811661123f576040805162461bcd60e51b815260206004820152601960248201527f41646472657373206d757374206e6f74206265206e756c6c2100000000000000604482015290519081900360640190fd5b6005805460019081018083556040805180820182526001600160a01b03808816808352600060208085018281523380845260068084528885209985529883528784209651875492511515600160a01b90810260ff60a01b199289166001600160a01b0319958616178316179098558b54909a019a8b9055875180890189529081528083018481528585529883528784209a845299825286832099518a54985115159096029590941696909316959095179095169190911790945580519283529282015281517ff7915d9aee0e1eca222a9a71fef77c997640eaae0fb9e9bfe1e1c24a721018b1929181900390910190a15050565b828054600181600116156101000203166002900490600052602060002090601f016020900481019282601f1061137457805160ff19168380011785556113a1565b828001600101855582156113a1579182015b828111156113a1578251825591602001919060010190611386565b506113ad9291506113b1565b5090565b610d0791905b808211156113ad57600081556001016113b756fe43757272656e742077616c6c6574206f776e6572206973206e6f7420616e207573657221537461747573206d757374206265206569746865722074727565206f722066616c7365215265636569766572277320416464726573732063616e2774206265206e756c6c21a265627a7a72315820f17940cf27ef8e53d2a2002ae5494d330996849a939c9fab73eee761631f085964736f6c63430005100032",
  "source": "// SPDX-License-Identifier: None\r\npragma solidity ^0.5.0 <0.7.0;\r\n\r\ncontract Chitthi{\r\n    // Cache - This cache is used since updateRequest needs byte value to operate\r\n    bytes trueValue = \"true\";\r\n    bytes falseValue = \"false\";\r\n    \r\n    function getTrueByte() public view returns(bytes memory){\r\n        return trueValue;\r\n    }\r\n    \r\n    function getFalseByte() public view returns(bytes memory){\r\n        return falseValue;\r\n    }\r\n    \r\n    // ---------------------------Structs-------------------------------------//\r\n    \r\n    struct User{\r\n        string userName;\r\n        address userAddress;\r\n    }\r\n    \r\n    struct Message{\r\n        address messageFrom;\r\n        string message;\r\n    }\r\n\r\n    struct Friend{\r\n        address friendAddress;\r\n        bool isBlocked;\r\n    }\r\n \r\n    struct FriendRequest{\r\n        address requestFrom;\r\n        bytes status;\r\n    }\r\n    \r\n    // ---------------------------Mappings--------------------------------------//\r\n\r\n    mapping (address => User) public users;\r\n\r\n    // Below the mapping are nested mapping so it functions like 3d array\r\n    uint256 private messageCount = 0;\r\n    mapping (address => mapping(uint256 => Message)) public messages;\r\n\r\n    uint256 private friendCount = 0;\r\n    mapping (address => mapping(uint256 => Friend)) public friends;\r\n\r\n    uint256 private requestCount = 0;\r\n    mapping (address => mapping(uint256 => FriendRequest)) public friendRequests;\r\n    \r\n    //------------------------------Events---------------------------------------//\r\n    \r\n    //Events to describe what happened\r\n    event userAdded(\r\n        string userName,\r\n        address userAddress\r\n    );\r\n    \r\n    event messageTransfered(\r\n        address messageFrom,\r\n        string message\r\n    );\r\n    \r\n    event friendAdded(\r\n        address friendAddress,\r\n        bool isBlocked\r\n    );\r\n    \r\n    event friendRequestSent(\r\n        address requestFrom,\r\n        bytes status\r\n    );\r\n    \r\n    event friendRequestUpdated(\r\n        address requestFrom,\r\n        bytes status\r\n    );\r\n    \r\n    // -------------------------Function Modifiers-------------------------------//\r\n    \r\n    // 1. Check if user or not\r\n    modifier isUser{\r\n        require(users[msg.sender].userAddress != address(0x0), \"Current wallet owner is not an user!\");\r\n        _;\r\n    }\r\n    \r\n    // 2. Middleware for new user\r\n    modifier newUserMiddleware(string memory _userName) {\r\n        require(bytes(_userName).length > 0, 'Username can\\'t be null!');\r\n        require(msg.sender != address(0x0), \"Wallet not detected!\");\r\n        _;\r\n    }\r\n    \r\n    // 3. Middleware for sending Message\r\n    modifier newMessageMiddleware(address _toAddress, string memory _message){\r\n        require(users[_toAddress].userAddress != address(0x0), \"Receiver is not an user!\");\r\n        require(_toAddress != address(0x0), 'Receiver\\'s Address can\\'t be null!');\r\n        require(bytes(_message).length > 0, 'Message can\\'t be null!');\r\n        require(msg.sender != address(0x0), 'Wallet not detected!');\r\n        \r\n        // check if _toAddress is friend or not\r\n        bool isFriend = false;\r\n        for(uint256 i = 1; i <= friendCount; i++){\r\n            if(friends[msg.sender][i].friendAddress == _toAddress){\r\n                isFriend = true;\r\n            }\r\n        }\r\n        \r\n        require(isFriend, \"User is not a friend!\");\r\n        _;\r\n    }\r\n    \r\n    // 4. Middleware for sending friend request\r\n    modifier newFriendRequestMiddleware(address _requestReceiver){\r\n        require(users[_requestReceiver].userAddress != address(0x0), \"Request receiver is not an user!\");\r\n        _;\r\n    }\r\n    \r\n    // 5. Middleware for adding friend\r\n    modifier addFriendMiddleware(address _requestFrom){\r\n        require(_requestFrom != address(0x0), \"Address must not be null!\");\r\n        _;\r\n    }\r\n    \r\n    // 6. Middleware for updating friend request\r\n    modifier updateFriendRequestMiddleware(uint256 _requestCount, bytes memory _status){\r\n        require(keccak256(_status) == keccak256(\"true\") || keccak256(_status) == keccak256(\"false\"), \"Status must be either true or false!\");\r\n        _;\r\n    }\r\n    \r\n    //--------------------------Functions----------------------------------------//\r\n    // 1. Create User\r\n    function addUser(string memory _userName) newUserMiddleware(_userName) public{\r\n        users[msg.sender] = User(_userName, msg.sender);\r\n        emit userAdded(\r\n             _userName, msg.sender\r\n        );\r\n    }\r\n    \r\n    // 2. Send Message\r\n    function sendMessage(address _toAddress, string memory _message) isUser newMessageMiddleware(_toAddress, _message) public {\r\n        ++messageCount;\r\n        messages[_toAddress][messageCount] = Message(msg.sender, _message);\r\n        emit messageTransfered(\r\n            _toAddress,\r\n            _message\r\n        );\r\n    }\r\n    \r\n    // 3. Send Friend Request\r\n    function sendFriendRequest(address _requestReceiver) isUser newFriendRequestMiddleware(_requestReceiver) public{\r\n        ++requestCount;\r\n        friendRequests[_requestReceiver][requestCount] = FriendRequest(msg.sender, \"null\");\r\n        emit friendRequestSent(\r\n            msg.sender,\r\n            \"null\"\r\n        );\r\n    }\r\n    \r\n    // 4. Add friend\r\n    function addFriend(address _requestFrom) isUser addFriendMiddleware(_requestFrom) private{\r\n        ++friendCount;\r\n        friends[msg.sender][friendCount] = Friend(_requestFrom, false);\r\n        \r\n        ++friendCount;\r\n        friends[_requestFrom][friendCount] = Friend(msg.sender, false);\r\n        emit friendAdded(\r\n            _requestFrom,\r\n            false\r\n        );\r\n    }\r\n    \r\n    // 5. update friend request\r\n    function updateFriendRequestStatus(uint256 _requestCount, bytes memory _status) isUser updateFriendRequestMiddleware(_requestCount, _status) public{\r\n        if(keccak256(_status) == keccak256(\"true\")){\r\n            friendRequests[msg.sender][_requestCount].status = \"true\";    \r\n            emit friendRequestUpdated(\r\n                friendRequests[msg.sender][_requestCount].requestFrom,\r\n                _status\r\n            );\r\n            addFriend(friendRequests[msg.sender][_requestCount].requestFrom);\r\n        }\r\n        if(keccak256(_status) == keccak256(\"false\")){\r\n            friendRequests[msg.sender][_requestCount].status = \"false\";    \r\n        }\r\n    }\r\n}",
  "sourcePath": "C:/Users/sangy/Documents/chitthi/contracts/Chitthi.sol",
  "compiler": {
    "name": "solc",
    "version": "0.5.16+commit.9c3226ce.Emscripten.clang"
  },
  "schemaVersion": "3.3.1",
  "updatedAt": "2020-11-17T05:01:05.475Z",
  "networkType": "ethereum",
  "devdoc": {
    "methods": {}
  },
  "userdoc": {
    "methods": {}
  }
}